{
  "_format": "hh-sol-artifact-1",
  "contractName": "FundFilm",
  "sourceName": "contracts/FundFilm.sol",
  "abi": [
    {
      "inputs": [],
      "stateMutability": "nonpayable",
      "type": "constructor"
    },
    {
      "anonymous": false,
      "inputs": [
        {
          "indexed": false,
          "internalType": "uint256",
          "name": "_id",
          "type": "uint256"
        },
        {
          "indexed": false,
          "internalType": "uint256",
          "name": "_newDeadline",
          "type": "uint256"
        },
        {
          "indexed": false,
          "internalType": "uint256",
          "name": "feePaid",
          "type": "uint256"
        }
      ],
      "name": "CampaignDeadlineExtended",
      "type": "event"
    },
    {
      "anonymous": false,
      "inputs": [
        {
          "indexed": false,
          "internalType": "string",
          "name": "_title",
          "type": "string"
        },
        {
          "indexed": false,
          "internalType": "string",
          "name": "_description",
          "type": "string"
        },
        {
          "indexed": false,
          "internalType": "uint256",
          "name": "_target",
          "type": "uint256"
        },
        {
          "indexed": false,
          "internalType": "string",
          "name": "_image",
          "type": "string"
        },
        {
          "indexed": false,
          "internalType": "string",
          "name": "_video",
          "type": "string"
        }
      ],
      "name": "CampaignEdited",
      "type": "event"
    },
    {
      "anonymous": false,
      "inputs": [
        {
          "indexed": false,
          "internalType": "address",
          "name": "owner",
          "type": "address"
        },
        {
          "indexed": false,
          "internalType": "uint256",
          "name": "campaignId",
          "type": "uint256"
        },
        {
          "indexed": false,
          "internalType": "string",
          "name": "_title",
          "type": "string"
        },
        {
          "indexed": false,
          "internalType": "string",
          "name": "_description",
          "type": "string"
        },
        {
          "indexed": false,
          "internalType": "uint256",
          "name": "_target",
          "type": "uint256"
        },
        {
          "indexed": false,
          "internalType": "uint256",
          "name": "_deadline",
          "type": "uint256"
        },
        {
          "indexed": false,
          "internalType": "string",
          "name": "_image",
          "type": "string"
        },
        {
          "indexed": false,
          "internalType": "string",
          "name": "_video",
          "type": "string"
        }
      ],
      "name": "CampaignStarted",
      "type": "event"
    },
    {
      "anonymous": false,
      "inputs": [
        {
          "indexed": false,
          "internalType": "address",
          "name": "donator",
          "type": "address"
        },
        {
          "indexed": false,
          "internalType": "uint256",
          "name": "_campaignId",
          "type": "uint256"
        },
        {
          "indexed": false,
          "internalType": "uint256",
          "name": "_amount",
          "type": "uint256"
        }
      ],
      "name": "DonatedToCampaign",
      "type": "event"
    },
    {
      "anonymous": false,
      "inputs": [
        {
          "indexed": false,
          "internalType": "uint256",
          "name": "_campaignId",
          "type": "uint256"
        },
        {
          "indexed": false,
          "internalType": "address",
          "name": "_owner",
          "type": "address"
        },
        {
          "indexed": false,
          "internalType": "uint256",
          "name": "_amountWithdrawn",
          "type": "uint256"
        }
      ],
      "name": "WithdrewFromCampaign",
      "type": "event"
    },
    {
      "inputs": [],
      "name": "CAMPAIGNS_VALUE_LOCKED",
      "outputs": [
        {
          "internalType": "uint256",
          "name": "",
          "type": "uint256"
        }
      ],
      "stateMutability": "view",
      "type": "function"
    },
    {
      "inputs": [],
      "name": "SERVICE_FEE",
      "outputs": [
        {
          "internalType": "uint256",
          "name": "",
          "type": "uint256"
        }
      ],
      "stateMutability": "view",
      "type": "function"
    },
    {
      "inputs": [],
      "name": "WITHDRAWAL_FEE",
      "outputs": [
        {
          "internalType": "uint256",
          "name": "",
          "type": "uint256"
        }
      ],
      "stateMutability": "view",
      "type": "function"
    },
    {
      "inputs": [
        {
          "internalType": "uint256",
          "name": "",
          "type": "uint256"
        }
      ],
      "name": "campaigns",
      "outputs": [
        {
          "internalType": "address",
          "name": "owner",
          "type": "address"
        },
        {
          "internalType": "uint256",
          "name": "campaignId",
          "type": "uint256"
        },
        {
          "internalType": "string",
          "name": "title",
          "type": "string"
        },
        {
          "internalType": "string",
          "name": "description",
          "type": "string"
        },
        {
          "internalType": "uint256",
          "name": "target",
          "type": "uint256"
        },
        {
          "internalType": "uint256",
          "name": "deadline",
          "type": "uint256"
        },
        {
          "internalType": "uint256",
          "name": "amountCollected",
          "type": "uint256"
        },
        {
          "internalType": "string",
          "name": "image",
          "type": "string"
        },
        {
          "internalType": "string",
          "name": "video",
          "type": "string"
        },
        {
          "internalType": "bool",
          "name": "hasWithdrawn",
          "type": "bool"
        }
      ],
      "stateMutability": "view",
      "type": "function"
    },
    {
      "inputs": [
        {
          "internalType": "uint256",
          "name": "_id",
          "type": "uint256"
        }
      ],
      "name": "donateToCampaign",
      "outputs": [],
      "stateMutability": "payable",
      "type": "function"
    },
    {
      "inputs": [
        {
          "internalType": "uint256",
          "name": "_id",
          "type": "uint256"
        },
        {
          "internalType": "string",
          "name": "_title",
          "type": "string"
        },
        {
          "internalType": "string",
          "name": "_description",
          "type": "string"
        },
        {
          "internalType": "uint256",
          "name": "_target",
          "type": "uint256"
        },
        {
          "internalType": "string",
          "name": "_image",
          "type": "string"
        },
        {
          "internalType": "string",
          "name": "_video",
          "type": "string"
        }
      ],
      "name": "editCampaign",
      "outputs": [],
      "stateMutability": "nonpayable",
      "type": "function"
    },
    {
      "inputs": [
        {
          "internalType": "uint256",
          "name": "_id",
          "type": "uint256"
        },
        {
          "internalType": "uint256",
          "name": "_newDeadline",
          "type": "uint256"
        }
      ],
      "name": "extendDeadline",
      "outputs": [],
      "stateMutability": "payable",
      "type": "function"
    },
    {
      "inputs": [
        {
          "internalType": "uint256",
          "name": "_id",
          "type": "uint256"
        }
      ],
      "name": "getDonators",
      "outputs": [
        {
          "internalType": "address[]",
          "name": "",
          "type": "address[]"
        },
        {
          "internalType": "uint256[]",
          "name": "",
          "type": "uint256[]"
        }
      ],
      "stateMutability": "view",
      "type": "function"
    },
    {
      "inputs": [],
      "name": "numberOfCampaigns",
      "outputs": [
        {
          "internalType": "uint256",
          "name": "",
          "type": "uint256"
        }
      ],
      "stateMutability": "view",
      "type": "function"
    },
    {
      "inputs": [],
      "name": "platformOwner",
      "outputs": [
        {
          "internalType": "address payable",
          "name": "",
          "type": "address"
        }
      ],
      "stateMutability": "view",
      "type": "function"
    },
    {
      "inputs": [
        {
          "internalType": "string",
          "name": "_title",
          "type": "string"
        },
        {
          "internalType": "string",
          "name": "_description",
          "type": "string"
        },
        {
          "internalType": "uint256",
          "name": "_target",
          "type": "uint256"
        },
        {
          "internalType": "uint256",
          "name": "_deadline",
          "type": "uint256"
        },
        {
          "internalType": "string",
          "name": "_image",
          "type": "string"
        },
        {
          "internalType": "string",
          "name": "_video",
          "type": "string"
        }
      ],
      "name": "startCampaign",
      "outputs": [
        {
          "internalType": "uint256",
          "name": "",
          "type": "uint256"
        }
      ],
      "stateMutability": "nonpayable",
      "type": "function"
    },
    {
      "inputs": [
        {
          "internalType": "uint256",
          "name": "_campaignId",
          "type": "uint256"
        }
      ],
      "name": "withdrawFromCampaign",
      "outputs": [],
      "stateMutability": "nonpayable",
      "type": "function"
    },
    {
      "inputs": [],
      "name": "withdrawServiceFees",
      "outputs": [],
      "stateMutability": "nonpayable",
      "type": "function"
    }
  ],
  "bytecode": "0x6080604052600060015534801561001557600080fd5b50600080546001600160a01b031916331790556115c5806100376000396000f3fe6080604052600436106100c25760003560e01c80634df8ccb11161007f57806382d021cf1161005957806382d021cf14610209578063a5d33ed514610229578063c2ad33951461023e578063d72e481d1461025457600080fd5b80634df8ccb11461019c5780634f48dbeb146101d457806350c86de5146101f457600080fd5b806307ca140d146100c75780630e39ac67146100f05780630fa91fa914610112578063141961bc146101405780632d1fdef61461017657806342a4fda814610189575b600080fd5b3480156100d357600080fd5b506100dd60015481565b6040519081526020015b60405180910390f35b3480156100fc57600080fd5b5061011061010b366004610f50565b610269565b005b34801561011e57600080fd5b5061013261012d366004610f50565b6104be565b6040516100e7929190610f69565b34801561014c57600080fd5b5061016061015b366004610f50565b61058f565b6040516100e79a99989796959493929190611033565b6101106101843660046110c9565b610809565b610110610197366004610f50565b610a7e565b3480156101a857600080fd5b506000546101bc906001600160a01b031681565b6040516001600160a01b0390911681526020016100e7565b3480156101e057600080fd5b506101106101ef36600461118e565b610c3c565b34801561020057600080fd5b506100dd600281565b34801561021557600080fd5b506100dd61022436600461124d565b610d45565b34801561023557600080fd5b506100dd600a81565b34801561024a57600080fd5b506100dd60025481565b34801561026057600080fd5b50610110610e88565b60008181526003602052604090205481906001600160a01b031633146102eb5760405162461bcd60e51b815260206004820152602c60248201527f4f6e6c792063616d706169676e206f776e6572732063616e2063616c6c20746860448201526b69732066756e6374696f6e2160a01b60648201526084015b60405180910390fd5b60008281526003602052604090206005015482904210158061032457506000818152600360205260409020600481015460069091015410155b6103705760405162461bcd60e51b815260206004820152601960248201527f43616d706169676e206861736e277420656e646564207965740000000000000060448201526064016102e2565b6000838152600360205260409020600b81015460ff16156103d35760405162461bcd60e51b815260206004820152601b60248201527f596f752063616e206f6e6c79207769746864726177206f6e636521000000000060448201526064016102e2565b60006064600a83600601546103e891906112e6565b6103f29190611303565b82600601546104019190611325565b600b8301805460ff19166001179055600683015460028054929350909160009061042c908490611325565b909155505081546040516001600160a01b039091169082156108fc029083906000818181858888f1935050505015801561046a573d6000803e3d6000fd5b508154604080518781526001600160a01b03909216602083015281018290527f0d1aa142e9a4e0558ca25b1c14e6ce01da5037efa779afa4dd5d63ab3899a7de906060015b60405180910390a15050505050565b60008181526003602090815260409182902060098101805484518185028101850190955280855260609485949293600a01929091849183018282801561052d57602002820191906000526020600020905b81546001600160a01b0316815260019091019060200180831161050f575b505050505091508080548060200260200160405190810160405280929190818152602001828054801561057f57602002820191906000526020600020905b81548152602001906001019080831161056b575b5050505050905091509150915091565b6003602052600090815260409020805460018201546002830180546001600160a01b039093169391926105c190611338565b80601f01602080910402602001604051908101604052809291908181526020018280546105ed90611338565b801561063a5780601f1061060f5761010080835404028352916020019161063a565b820191906000526020600020905b81548152906001019060200180831161061d57829003601f168201915b50505050509080600301805461064f90611338565b80601f016020809104026020016040519081016040528092919081815260200182805461067b90611338565b80156106c85780601f1061069d576101008083540402835291602001916106c8565b820191906000526020600020905b8154815290600101906020018083116106ab57829003601f168201915b5050505050908060040154908060050154908060060154908060070180546106ef90611338565b80601f016020809104026020016040519081016040528092919081815260200182805461071b90611338565b80156107685780601f1061073d57610100808354040283529160200191610768565b820191906000526020600020905b81548152906001019060200180831161074b57829003601f168201915b50505050509080600801805461077d90611338565b80601f01602080910402602001604051908101604052809291908181526020018280546107a990611338565b80156107f65780601f106107cb576101008083540402835291602001916107f6565b820191906000526020600020905b8154815290600101906020018083116107d957829003601f168201915b505050600b909301549192505060ff168a565b6000828152600360205260409020600b0154829060ff1615801561083d575060008181526003602052604090206005015442105b6108895760405162461bcd60e51b815260206004820152601d60248201527f43616d706169676e2068617320616c72656164792066696e697368656400000060448201526064016102e2565b600083815260036020526040902080546001600160a01b03163314610918576040805162461bcd60e51b81526020600482015260248101919091527f4f6e6c792063616d706169676e206f776e6572732063616e20657874656e642060448201527f74686520646561646c696e65206f662074686569722063616d706169676e732160648201526084016102e2565b806005015483116109855760405162461bcd60e51b815260206004820152603160248201527f4e657720646561646c696e652073686f756c64206265206c61746572207468616044820152706e207468652063757272656e74206f6e6560781b60648201526084016102e2565b600060646002836004015461099a91906112e6565b6109a49190611303565b9050803414610a395760405162461bcd60e51b815260206004820152605560248201527f5365727669636520666565206e6f742070726f7669646564206f7220696e737560448201527f6666696369656e74202873686f756c6420657175616c20746f203225206f66206064820152741d1a194818d85b5c185a59db89dcc81d185c99d95d605a1b608482015260a4016102e2565b6005820184905560408051868152602081018690529081018290527f04f069eef9fa9fa5d95c487250eda655fcef96c01bb0c623fe32214223b90fdd906060016104af565b600081815260036020526040902080546001600160a01b03163303610ae55760405162461bcd60e51b815260206004820152601f60248201527f43616e6e6f7420646f6e61746520746f206f776e2063616d706169676e73210060448201526064016102e2565b600b81015460ff1615610b865760405162461bcd60e51b815260206004820152605760248201527f546865206f776e6572206f6620746869732063616d706169676e20686173206160448201527f6c72656164792077697468647261776e2066726f6d2069742e204e6f2066757260648201527f7468657220646f6e6174696f6e7320616c6c6f7765642e000000000000000000608482015260a4016102e2565b600981018054600181810183556000928352602080842090920180546001600160a01b03191633179055600a840180549182018155835290822034910181905560068301805491929091610bdb908490611372565b925050819055503460026000828254610bf49190611372565b90915550506040805133815260208101849052348183015290517facb9698121ea3d1589b5479408223d4da13958982e88e85614f1c4f60fcd82699181900360600190a15050565b600086815260036020526040902080546001600160a01b03163314610cba5760405162461bcd60e51b815260206004820152602e60248201527f4f6e6c792063616d706169676e206f776e6572732063616e206564697420746860448201526d6569722063616d706169676e732160901b60648201526084016102e2565b60028101610cc887826113d4565b5060038101610cd786826113d4565b506004810184905560078101610ced84826113d4565b5060088101610cfc83826113d4565b507f0241329473e7063d85d76eeb25ecaa8b29856aac49c28069ee1fb873b477bbd68686868686604051610d34959493929190611494565b60405180910390a150505050505050565b6000428411610d965760405162461bcd60e51b815260206004820181905260248201527f446561646c696e652073686f756c6420626520696e207468652066757475726560448201526064016102e2565b60018054600090815260036020526040902080546001600160a01b0319163317815581549181019190915560028101610dcf89826113d4565b5060038101610dde88826113d4565b506004810186905560058101859055835115610e045760078101610e0285826113d4565b505b825115610e1b5760088101610e1984826113d4565b505b60018054906000610e2b836114f3565b91905055507fd3a78c3a86b1eec2b4a7420ca8cc82d7eeed6a1f48bab8e0c1db4b17eb2694a23382600101548a8a8a8a8a8a604051610e7198979695949392919061150c565b60405180910390a160010154979650505050505050565b6000546001600160a01b03163314610e9f57600080fd5b600060025447610eaf9190611325565b6000805460405192935090916001600160a01b039091169083908381818185875af1925050503d8060008114610f01576040519150601f19603f3d011682016040523d82523d6000602084013e610f06565b606091505b5050905080610f4c5760405162461bcd60e51b81526020600482015260126024820152714661696c656420746f20776974686472617760701b60448201526064016102e2565b5050565b600060208284031215610f6257600080fd5b5035919050565b604080825283519082018190526000906020906060840190828701845b82811015610fab5781516001600160a01b031684529284019290840190600101610f86565b5050508381038285015284518082528583019183019060005b81811015610fe057835183529284019291840191600101610fc4565b5090979650505050505050565b6000815180845260005b8181101561101357602081850181015186830182015201610ff7565b506000602082860101526020601f19601f83011685010191505092915050565b6001600160a01b038b168152602081018a90526101406040820181905260009061105f8382018c610fed565b90508281036060840152611073818b610fed565b90508860808401528760a08401528660c084015282810360e08401526110998187610fed565b90508281036101008401526110ae8186610fed565b9150508215156101208301529b9a5050505050505050505050565b600080604083850312156110dc57600080fd5b50508035926020909101359150565b634e487b7160e01b600052604160045260246000fd5b600082601f83011261111257600080fd5b813567ffffffffffffffff8082111561112d5761112d6110eb565b604051601f8301601f19908116603f01168101908282118183101715611155576111556110eb565b8160405283815286602085880101111561116e57600080fd5b836020870160208301376000602085830101528094505050505092915050565b60008060008060008060c087890312156111a757600080fd5b86359550602087013567ffffffffffffffff808211156111c657600080fd5b6111d28a838b01611101565b965060408901359150808211156111e857600080fd5b6111f48a838b01611101565b955060608901359450608089013591508082111561121157600080fd5b61121d8a838b01611101565b935060a089013591508082111561123357600080fd5b5061124089828a01611101565b9150509295509295509295565b60008060008060008060c0878903121561126657600080fd5b863567ffffffffffffffff8082111561127e57600080fd5b61128a8a838b01611101565b975060208901359150808211156112a057600080fd5b6112ac8a838b01611101565b96506040890135955060608901359450608089013591508082111561121157600080fd5b634e487b7160e01b600052601160045260246000fd5b80820281158282048414176112fd576112fd6112d0565b92915050565b60008261132057634e487b7160e01b600052601260045260246000fd5b500490565b818103818111156112fd576112fd6112d0565b600181811c9082168061134c57607f821691505b60208210810361136c57634e487b7160e01b600052602260045260246000fd5b50919050565b808201808211156112fd576112fd6112d0565b601f8211156113cf57600081815260208120601f850160051c810160208610156113ac5750805b601f850160051c820191505b818110156113cb578281556001016113b8565b5050505b505050565b815167ffffffffffffffff8111156113ee576113ee6110eb565b611402816113fc8454611338565b84611385565b602080601f831160018114611437576000841561141f5750858301515b600019600386901b1c1916600185901b1785556113cb565b600085815260208120601f198616915b8281101561146657888601518255948401946001909101908401611447565b50858210156114845787850151600019600388901b60f8161c191681555b5050505050600190811b01905550565b60a0815260006114a760a0830188610fed565b82810360208401526114b98188610fed565b905085604084015282810360608401526114d38186610fed565b905082810360808401526114e78185610fed565b98975050505050505050565b600060018201611505576115056112d0565b5060010190565b6001600160a01b038916815260208101889052610100604082018190526000906115388382018a610fed565b9050828103606084015261154c8189610fed565b90508660808401528560a084015282810360c084015261156c8186610fed565b905082810360e08401526115808185610fed565b9b9a505050505050505050505056fea2646970667358221220309cfaa0b7100adf58ab8e252951b24df4a9f0e5cd4738cf186d8bbf377156e664736f6c63430008120033",
  "linkReferences": {},
  "deployedLinkReferences": {}
}