{
  "_format": "hh-sol-artifact-1",
  "contractName": "FundFilm",
  "sourceName": "contracts/FundFilm.sol",
  "abi": [
    {
      "inputs": [],
      "stateMutability": "nonpayable",
      "type": "constructor"
    },
    {
      "anonymous": false,
      "inputs": [
        {
          "indexed": false,
          "internalType": "uint256",
          "name": "_id",
          "type": "uint256"
        },
        {
          "indexed": false,
          "internalType": "uint256",
          "name": "_newDeadline",
          "type": "uint256"
        },
        {
          "indexed": false,
          "internalType": "uint256",
          "name": "feePaid",
          "type": "uint256"
        }
      ],
      "name": "CampaignDeadlineExtended",
      "type": "event"
    },
    {
      "anonymous": false,
      "inputs": [
        {
          "indexed": false,
          "internalType": "string",
          "name": "_title",
          "type": "string"
        },
        {
          "indexed": false,
          "internalType": "string",
          "name": "_description",
          "type": "string"
        },
        {
          "indexed": false,
          "internalType": "uint256",
          "name": "_target",
          "type": "uint256"
        },
        {
          "indexed": false,
          "internalType": "string",
          "name": "_image",
          "type": "string"
        },
        {
          "indexed": false,
          "internalType": "string",
          "name": "_video",
          "type": "string"
        }
      ],
      "name": "CampaignEdited",
      "type": "event"
    },
    {
      "anonymous": false,
      "inputs": [
        {
          "indexed": false,
          "internalType": "address",
          "name": "owner",
          "type": "address"
        },
        {
          "indexed": false,
          "internalType": "uint256",
          "name": "campaignId",
          "type": "uint256"
        },
        {
          "indexed": false,
          "internalType": "string",
          "name": "_title",
          "type": "string"
        },
        {
          "indexed": false,
          "internalType": "string",
          "name": "_description",
          "type": "string"
        },
        {
          "indexed": false,
          "internalType": "uint256",
          "name": "_target",
          "type": "uint256"
        },
        {
          "indexed": false,
          "internalType": "uint256",
          "name": "_deadline",
          "type": "uint256"
        },
        {
          "indexed": false,
          "internalType": "string",
          "name": "_image",
          "type": "string"
        },
        {
          "indexed": false,
          "internalType": "string",
          "name": "_video",
          "type": "string"
        }
      ],
      "name": "CampaignStarted",
      "type": "event"
    },
    {
      "anonymous": false,
      "inputs": [
        {
          "indexed": false,
          "internalType": "address",
          "name": "donator",
          "type": "address"
        },
        {
          "indexed": false,
          "internalType": "uint256",
          "name": "_campaignId",
          "type": "uint256"
        },
        {
          "indexed": false,
          "internalType": "uint256",
          "name": "_amount",
          "type": "uint256"
        }
      ],
      "name": "DonatedToCampaign",
      "type": "event"
    },
    {
      "anonymous": false,
      "inputs": [
        {
          "indexed": false,
          "internalType": "uint256",
          "name": "_campaignId",
          "type": "uint256"
        },
        {
          "indexed": false,
          "internalType": "address",
          "name": "_owner",
          "type": "address"
        },
        {
          "indexed": false,
          "internalType": "uint256",
          "name": "_amountWithdrawn",
          "type": "uint256"
        }
      ],
      "name": "WithdrewFromCampaign",
      "type": "event"
    },
    {
      "inputs": [],
      "name": "CAMPAIGNS_VALUE_LOCKED",
      "outputs": [
        {
          "internalType": "uint256",
          "name": "",
          "type": "uint256"
        }
      ],
      "stateMutability": "view",
      "type": "function"
    },
    {
      "inputs": [],
      "name": "SERVICE_FEE",
      "outputs": [
        {
          "internalType": "uint256",
          "name": "",
          "type": "uint256"
        }
      ],
      "stateMutability": "view",
      "type": "function"
    },
    {
      "inputs": [],
      "name": "WITHDRAWAL_FEE",
      "outputs": [
        {
          "internalType": "uint256",
          "name": "",
          "type": "uint256"
        }
      ],
      "stateMutability": "view",
      "type": "function"
    },
    {
      "inputs": [
        {
          "internalType": "uint256",
          "name": "",
          "type": "uint256"
        }
      ],
      "name": "campaigns",
      "outputs": [
        {
          "internalType": "address",
          "name": "owner",
          "type": "address"
        },
        {
          "internalType": "uint256",
          "name": "campaignId",
          "type": "uint256"
        },
        {
          "internalType": "string",
          "name": "title",
          "type": "string"
        },
        {
          "internalType": "string",
          "name": "description",
          "type": "string"
        },
        {
          "internalType": "uint256",
          "name": "target",
          "type": "uint256"
        },
        {
          "internalType": "uint256",
          "name": "deadline",
          "type": "uint256"
        },
        {
          "internalType": "uint256",
          "name": "amountCollected",
          "type": "uint256"
        },
        {
          "internalType": "string",
          "name": "image",
          "type": "string"
        },
        {
          "internalType": "string",
          "name": "video",
          "type": "string"
        },
        {
          "internalType": "bool",
          "name": "hasWithdrawn",
          "type": "bool"
        }
      ],
      "stateMutability": "view",
      "type": "function"
    },
    {
      "inputs": [
        {
          "internalType": "uint256",
          "name": "_id",
          "type": "uint256"
        }
      ],
      "name": "donateToCampaign",
      "outputs": [],
      "stateMutability": "payable",
      "type": "function"
    },
    {
      "inputs": [
        {
          "internalType": "uint256",
          "name": "_id",
          "type": "uint256"
        },
        {
          "internalType": "string",
          "name": "_title",
          "type": "string"
        },
        {
          "internalType": "string",
          "name": "_description",
          "type": "string"
        },
        {
          "internalType": "uint256",
          "name": "_target",
          "type": "uint256"
        },
        {
          "internalType": "string",
          "name": "_image",
          "type": "string"
        },
        {
          "internalType": "string",
          "name": "_video",
          "type": "string"
        }
      ],
      "name": "editCampaign",
      "outputs": [],
      "stateMutability": "nonpayable",
      "type": "function"
    },
    {
      "inputs": [
        {
          "internalType": "uint256",
          "name": "_id",
          "type": "uint256"
        },
        {
          "internalType": "uint256",
          "name": "_newDeadline",
          "type": "uint256"
        }
      ],
      "name": "extendDeadline",
      "outputs": [],
      "stateMutability": "payable",
      "type": "function"
    },
    {
      "inputs": [
        {
          "internalType": "uint256",
          "name": "_id",
          "type": "uint256"
        }
      ],
      "name": "getDonators",
      "outputs": [
        {
          "internalType": "address[]",
          "name": "",
          "type": "address[]"
        },
        {
          "internalType": "uint256[]",
          "name": "",
          "type": "uint256[]"
        }
      ],
      "stateMutability": "view",
      "type": "function"
    },
    {
      "inputs": [],
      "name": "numberOfCampaigns",
      "outputs": [
        {
          "internalType": "uint256",
          "name": "",
          "type": "uint256"
        }
      ],
      "stateMutability": "view",
      "type": "function"
    },
    {
      "inputs": [],
      "name": "platformOwner",
      "outputs": [
        {
          "internalType": "address payable",
          "name": "",
          "type": "address"
        }
      ],
      "stateMutability": "view",
      "type": "function"
    },
    {
      "inputs": [
        {
          "internalType": "string",
          "name": "_title",
          "type": "string"
        },
        {
          "internalType": "string",
          "name": "_description",
          "type": "string"
        },
        {
          "internalType": "uint256",
          "name": "_target",
          "type": "uint256"
        },
        {
          "internalType": "uint256",
          "name": "_deadline",
          "type": "uint256"
        },
        {
          "internalType": "string",
          "name": "_image",
          "type": "string"
        },
        {
          "internalType": "string",
          "name": "_video",
          "type": "string"
        }
      ],
      "name": "startCampaign",
      "outputs": [
        {
          "internalType": "uint256",
          "name": "",
          "type": "uint256"
        }
      ],
      "stateMutability": "nonpayable",
      "type": "function"
    },
    {
      "inputs": [
        {
          "internalType": "uint256",
          "name": "_campaignId",
          "type": "uint256"
        }
      ],
      "name": "withdrawFromCampaign",
      "outputs": [],
      "stateMutability": "nonpayable",
      "type": "function"
    },
    {
      "inputs": [],
      "name": "withdrawServiceFees",
      "outputs": [],
      "stateMutability": "nonpayable",
      "type": "function"
    }
  ],
  "bytecode": "0x6080604052600060015534801561001557600080fd5b50600080546001600160a01b03191633179055611588806100376000396000f3fe6080604052600436106100c25760003560e01c80634df8ccb11161007f57806382d021cf1161005957806382d021cf14610209578063a5d33ed514610229578063c2ad33951461023e578063d72e481d1461025457600080fd5b80634df8ccb11461019c5780634f48dbeb146101d457806350c86de5146101f457600080fd5b806307ca140d146100c75780630e39ac67146100f05780630fa91fa914610112578063141961bc146101405780632d1fdef61461017657806342a4fda814610189575b600080fd5b3480156100d357600080fd5b506100dd60015481565b6040519081526020015b60405180910390f35b3480156100fc57600080fd5b5061011061010b366004610f13565b610269565b005b34801561011e57600080fd5b5061013261012d366004610f13565b6104ba565b6040516100e7929190610f2c565b34801561014c57600080fd5b5061016061015b366004610f13565b61058b565b6040516100e79a99989796959493929190610ff6565b61011061018436600461108c565b610805565b610110610197366004610f13565b610a7a565b3480156101a857600080fd5b506000546101bc906001600160a01b031681565b6040516001600160a01b0390911681526020016100e7565b3480156101e057600080fd5b506101106101ef366004611151565b610bdf565b34801561020057600080fd5b506100dd600281565b34801561021557600080fd5b506100dd610224366004611210565b610ce8565b34801561023557600080fd5b506100dd600a81565b34801561024a57600080fd5b506100dd60025481565b34801561026057600080fd5b50610110610e2b565b60008181526003602052604090205481906001600160a01b031633146102eb5760405162461bcd60e51b815260206004820152602c60248201527f4f6e6c792063616d706169676e206f776e6572732063616e2063616c6c20746860448201526b69732066756e6374696f6e2160a01b60648201526084015b60405180910390fd5b60008281526003602052604090206005015482904210158061032457506000818152600360205260409020600481015460069091015410155b6103705760405162461bcd60e51b815260206004820152601960248201527f43616d706169676e206861736e277420656e646564207965740000000000000060448201526064016102e2565b6000838152600360205260409020600b81015460ff16156103d35760405162461bcd60e51b815260206004820152601b60248201527f596f752063616e206f6e6c79207769746864726177206f6e636521000000000060448201526064016102e2565b60006064600a83600601546103e891906112a9565b6103f291906112c6565b826006015461040191906112e8565b82546040519192506001600160a01b03169082156108fc029083906000818181858888f1935050505015801561043b573d6000803e3d6000fd5b50600b8201805460ff191660011790556006820154600280546000906104629084906112e8565b90915550508154604080518781526001600160a01b03909216602083015281018290527f0d1aa142e9a4e0558ca25b1c14e6ce01da5037efa779afa4dd5d63ab3899a7de906060015b60405180910390a15050505050565b60008181526003602090815260409182902060098101805484518185028101850190955280855260609485949293600a01929091849183018282801561052957602002820191906000526020600020905b81546001600160a01b0316815260019091019060200180831161050b575b505050505091508080548060200260200160405190810160405280929190818152602001828054801561057b57602002820191906000526020600020905b815481526020019060010190808311610567575b5050505050905091509150915091565b6003602052600090815260409020805460018201546002830180546001600160a01b039093169391926105bd906112fb565b80601f01602080910402602001604051908101604052809291908181526020018280546105e9906112fb565b80156106365780601f1061060b57610100808354040283529160200191610636565b820191906000526020600020905b81548152906001019060200180831161061957829003601f168201915b50505050509080600301805461064b906112fb565b80601f0160208091040260200160405190810160405280929190818152602001828054610677906112fb565b80156106c45780601f10610699576101008083540402835291602001916106c4565b820191906000526020600020905b8154815290600101906020018083116106a757829003601f168201915b5050505050908060040154908060050154908060060154908060070180546106eb906112fb565b80601f0160208091040260200160405190810160405280929190818152602001828054610717906112fb565b80156107645780601f1061073957610100808354040283529160200191610764565b820191906000526020600020905b81548152906001019060200180831161074757829003601f168201915b505050505090806008018054610779906112fb565b80601f01602080910402602001604051908101604052809291908181526020018280546107a5906112fb565b80156107f25780601f106107c7576101008083540402835291602001916107f2565b820191906000526020600020905b8154815290600101906020018083116107d557829003601f168201915b505050600b909301549192505060ff168a565b6000828152600360205260409020600b0154829060ff16158015610839575060008181526003602052604090206005015442105b6108855760405162461bcd60e51b815260206004820152601d60248201527f43616d706169676e2068617320616c72656164792066696e697368656400000060448201526064016102e2565b600083815260036020526040902080546001600160a01b03163314610914576040805162461bcd60e51b81526020600482015260248101919091527f4f6e6c792063616d706169676e206f776e6572732063616e20657874656e642060448201527f74686520646561646c696e65206f662074686569722063616d706169676e732160648201526084016102e2565b806005015483116109815760405162461bcd60e51b815260206004820152603160248201527f4e657720646561646c696e652073686f756c64206265206c61746572207468616044820152706e207468652063757272656e74206f6e6560781b60648201526084016102e2565b600060646002836004015461099691906112a9565b6109a091906112c6565b9050803414610a355760405162461bcd60e51b815260206004820152605560248201527f5365727669636520666565206e6f742070726f7669646564206f7220696e737560448201527f6666696369656e74202873686f756c6420657175616c20746f203225206f66206064820152741d1a194818d85b5c185a59db89dcc81d185c99d95d605a1b608482015260a4016102e2565b6005820184905560408051868152602081018690529081018290527f04f069eef9fa9fa5d95c487250eda655fcef96c01bb0c623fe32214223b90fdd906060016104ab565b6000818152600360205260409020600b81015460ff1615610b295760405162461bcd60e51b815260206004820152605760248201527f546865206f776e6572206f6620746869732063616d706169676e20686173206160448201527f6c72656164792077697468647261776e2066726f6d2069742e204e6f2066757260648201527f7468657220646f6e6174696f6e7320616c6c6f7765642e000000000000000000608482015260a4016102e2565b600981018054600181810183556000928352602080842090920180546001600160a01b03191633179055600a840180549182018155835290822034910181905560068301805491929091610b7e908490611335565b925050819055503460026000828254610b979190611335565b90915550506040805133815260208101849052348183015290517facb9698121ea3d1589b5479408223d4da13958982e88e85614f1c4f60fcd82699181900360600190a15050565b600086815260036020526040902080546001600160a01b03163314610c5d5760405162461bcd60e51b815260206004820152602e60248201527f4f6e6c792063616d706169676e206f776e6572732063616e206564697420746860448201526d6569722063616d706169676e732160901b60648201526084016102e2565b60028101610c6b8782611397565b5060038101610c7a8682611397565b506004810184905560078101610c908482611397565b5060088101610c9f8382611397565b507f0241329473e7063d85d76eeb25ecaa8b29856aac49c28069ee1fb873b477bbd68686868686604051610cd7959493929190611457565b60405180910390a150505050505050565b6000428411610d395760405162461bcd60e51b815260206004820181905260248201527f446561646c696e652073686f756c6420626520696e207468652066757475726560448201526064016102e2565b60018054600090815260036020526040902080546001600160a01b0319163317815581549181019190915560028101610d728982611397565b5060038101610d818882611397565b506004810186905560058101859055835115610da75760078101610da58582611397565b505b825115610dbe5760088101610dbc8482611397565b505b60018054906000610dce836114b6565b91905055507fd3a78c3a86b1eec2b4a7420ca8cc82d7eeed6a1f48bab8e0c1db4b17eb2694a23382600101548a8a8a8a8a8a604051610e149897969594939291906114cf565b60405180910390a160010154979650505050505050565b6000546001600160a01b03163314610e4257600080fd5b60006064610e51600a826112e8565b600254610e5e91906112a9565b610e6891906112c6565b610e7290476112e8565b6000805460405192935090916001600160a01b039091169083908381818185875af1925050503d8060008114610ec4576040519150601f19603f3d011682016040523d82523d6000602084013e610ec9565b606091505b5050905080610f0f5760405162461bcd60e51b81526020600482015260126024820152714661696c656420746f20776974686472617760701b60448201526064016102e2565b5050565b600060208284031215610f2557600080fd5b5035919050565b604080825283519082018190526000906020906060840190828701845b82811015610f6e5781516001600160a01b031684529284019290840190600101610f49565b5050508381038285015284518082528583019183019060005b81811015610fa357835183529284019291840191600101610f87565b5090979650505050505050565b6000815180845260005b81811015610fd657602081850181015186830182015201610fba565b506000602082860101526020601f19601f83011685010191505092915050565b6001600160a01b038b168152602081018a9052610140604082018190526000906110228382018c610fb0565b90508281036060840152611036818b610fb0565b90508860808401528760a08401528660c084015282810360e084015261105c8187610fb0565b90508281036101008401526110718186610fb0565b9150508215156101208301529b9a5050505050505050505050565b6000806040838503121561109f57600080fd5b50508035926020909101359150565b634e487b7160e01b600052604160045260246000fd5b600082601f8301126110d557600080fd5b813567ffffffffffffffff808211156110f0576110f06110ae565b604051601f8301601f19908116603f01168101908282118183101715611118576111186110ae565b8160405283815286602085880101111561113157600080fd5b836020870160208301376000602085830101528094505050505092915050565b60008060008060008060c0878903121561116a57600080fd5b86359550602087013567ffffffffffffffff8082111561118957600080fd5b6111958a838b016110c4565b965060408901359150808211156111ab57600080fd5b6111b78a838b016110c4565b95506060890135945060808901359150808211156111d457600080fd5b6111e08a838b016110c4565b935060a08901359150808211156111f657600080fd5b5061120389828a016110c4565b9150509295509295509295565b60008060008060008060c0878903121561122957600080fd5b863567ffffffffffffffff8082111561124157600080fd5b61124d8a838b016110c4565b9750602089013591508082111561126357600080fd5b61126f8a838b016110c4565b9650604089013595506060890135945060808901359150808211156111d457600080fd5b634e487b7160e01b600052601160045260246000fd5b80820281158282048414176112c0576112c0611293565b92915050565b6000826112e357634e487b7160e01b600052601260045260246000fd5b500490565b818103818111156112c0576112c0611293565b600181811c9082168061130f57607f821691505b60208210810361132f57634e487b7160e01b600052602260045260246000fd5b50919050565b808201808211156112c0576112c0611293565b601f82111561139257600081815260208120601f850160051c8101602086101561136f5750805b601f850160051c820191505b8181101561138e5782815560010161137b565b5050505b505050565b815167ffffffffffffffff8111156113b1576113b16110ae565b6113c5816113bf84546112fb565b84611348565b602080601f8311600181146113fa57600084156113e25750858301515b600019600386901b1c1916600185901b17855561138e565b600085815260208120601f198616915b828110156114295788860151825594840194600190910190840161140a565b50858210156114475787850151600019600388901b60f8161c191681555b5050505050600190811b01905550565b60a08152600061146a60a0830188610fb0565b828103602084015261147c8188610fb0565b905085604084015282810360608401526114968186610fb0565b905082810360808401526114aa8185610fb0565b98975050505050505050565b6000600182016114c8576114c8611293565b5060010190565b6001600160a01b038916815260208101889052610100604082018190526000906114fb8382018a610fb0565b9050828103606084015261150f8189610fb0565b90508660808401528560a084015282810360c084015261152f8186610fb0565b905082810360e08401526115438185610fb0565b9b9a505050505050505050505056fea2646970667358221220294b95f316dcc4121626fbcdcb37a63515db17ec39a7e3dda964cb4b922c94d064736f6c63430008120033",
  "linkReferences": {},
  "deployedLinkReferences": {}
}